:100000000C9434000C9449000C9449000C94490061
:100010000C9449000C9449000C9449000C9449003C
:100020000C9449000C9449000C9449000C9449002C
:100030000C9449000C9449000C9449000C9449001C
:100040000C9449000C9449000C9449000C9449000C
:100050000C9449000C9449000C9449000C944900FC
:100060000C9449000C94490011241FBECFEFD8E036
:10007000DEBFCDBF11E0A0E0B1E0E8E7F8E002C0EC
:1000800005900D92AC31B107D9F70E9485000C9410
:100090003A040C94000080FF0BC05C9A81FF0AC0F8
:1000A0005D9A82FF09C05E9A83FF08C05F9A089537
:1000B0005C98F4CF5D98F5CF5E98F6CF5F98089581
:1000C000CF93C82F299A82958F700E944B00299850
:1000D000299A8C2F0E944B00299887EC90E0019779
:1000E000F1F700C00000CF910895CF93DF93EC01AA
:1000F0008991882321F0289A0E946000F9CFDF912E
:10010000CF91089528980C946000CF93DF9300D08E
:100110001F92CDB7DEB785B18C6385B9549A559AD5
:10012000569A579A219A209A8FE59AEE0197F1F7FD
:1001300000C000002898299813E0299A83E00E94C3
:100140004B0029988FE19EE40197F1F700C0000071
:10015000115099F7299A82E00E944B0029988FE963
:100160009FE00197F1F700C0000088E20E94820042
:1001700088E00E94820081E00E9482008FE39FE17C
:100180000197F1F700C0000086E00E9482008CE039
:100190000E94820000E0712C88E0E82E81E0F82EB9
:1001A000CE0101964C016E0192E0C90ED11C5E0198
:1001B00023E0A20EB11C489902C01F5F00E04999DC
:1001C00003C01111115000E04A9903C0739400E07C
:1001D00010E04B9904C071107A9400E010E080E8C0
:1001E0000E94820080E091E00E94750089E08715FE
:1001F00020F086E091E00E9475001F927F92FF92AE
:10020000EF929F928F920E946201C4010E9475003A
:100210008BE091E00E9475000F900F900F900F906F
:100220000F900F901A3020F486E091E00E94750044
:100230001F921F93FF92EF92DF92CF920E94620172
:10024000C6010E9475008BE091E00E9475000F903E
:100250000F900F900F900F900F900A3020F486E0CF
:1002600091E00E9475001F920F93FF92EF92BF9250
:10027000AF920E946201C5010E94750080EC0E944D
:1002800082008DE091E00E9475009FEF23ED80E3F6
:10029000915020408040E1F700C000000F900F9087
:1002A0000F900F900F900F900C3311F41F5F00E030
:1002B0001C3311F4739410E098E1791201C0712C91
:1002C0000F5F79CFAEE0B0E0E8E6F1E00C94110406
:1002D0000D891E8986E08C831A8309838FEF9FE73F
:1002E0009E838D83AE01475E5F4F6F89788DCE010F
:1002F00001960E9485012F813885020F131FF80196
:1003000010822E96E4E00C942D04ABE0B0E0EBE814
:10031000F1E00C9403047C013B018A01FC0117828B
:100320001682838181FFC8C1CE0101965C01F7016D
:100330009381F30193FD859193FF81913F01882380
:1003400009F453C1853239F493FD859193FF81916E
:100350003F01853229F4B70190E00E947503E7CF91
:10036000912C212C312CFFE1F31538F08B3211F157
:1003700090F4803209F1833229F137FC3CC020ED42
:10038000280F2A3050F536FE20C08AE0989E200DB6
:100390001124922E06C08D3291F0803371F768944B
:1003A00030F8F30193FD859193FF81913F01811115
:1003B000DACF21C0689431F8689432F8F2CF6894AB
:1003C00033F8EFCF689434F8ECCFEAE02E9E200D9E
:1003D0001124222E689435F8E4CF8E3229F436FCAD
:1003E00004C1689436F8DDCF8C3619F4689437F878
:1003F000D8CF8836B1F2982F9F7D95549330E0F096
:100400008336A1F18337C1F1833509F063C0280138
:10041000F2E04F0E511CF801C080D180692D70E0D0
:1004200036FC02C06FEF7FEFC6010E945F034C01F4
:10043000689437F882010AC00C5F1F4FFFE3F9830D
:1004400088248394912C6501E89437F833FE2DC0FD
:10045000522C8114910471F5552009F468CFB7012D
:1004600080E290E00E9475035A94F6CFF8018081F3
:1004700089830E5F1F4FE4CF2801F2E04F0E511C1D
:10048000F801C080D180692D70E036FC02C06FEFAA
:100490007FEFC6010E946A034C018201D5CFB701EC
:1004A00080E290E00E9475032A942814190409F050
:1004B000B0F7CECFF60137FC859137FE81916F0101
:1004C000B70190E00E94750351105A94F1E08F1A21
:1004D0009108BFCF843619F0893609F077C0F8014A
:1004E00037FE6BC060817181828193810C5F1F4FE9
:1004F000F32DFF763F2E97FF09C09095809570955C
:1005000061957F4F8F4F9F4F689437F82AE030E016
:10051000A5010E94A503C82ECA188C2C432C36FEB8
:100520000CC0E89440F8C91440F434FE05C032FC15
:1005300003C0F32DFE7E4F2E892C44FE95C0FE0194
:10054000EC0DF11D8081803309F087C0242D297EB8
:10055000422E842D8870582E43FC95C040FE8FC0DB
:100560009C2C821418F42C0C922C981844FE91C0E8
:10057000B70180E390E00E94750342FE09C088E75E
:1005800090E041FE02C088E590E0B7010E9475034B
:10059000C91408F48AC0CA94D12C9FEFC91AD90A89
:1005A000CA0CDB1CF60182916F01B70190E00E943A
:1005B0007503AC14BD04B1F74FCF60817181072E74
:1005C000000C880B990B0E5F1F4F92CFD32CE89431
:1005D000D4F82AE030E0853739F1232D297FD22E57
:1005E0008F3601F148F48835A9F0F70186819781AB
:1005F0002B96E2E10C941F04803749F08837A9F765
:10060000D4FE02C06894D2F820E130E00DC06894B6
:10061000D4F8F6CF34FE03C0822F8660D82E20E1B6
:1006200032E002C028E030E0F801D7FE0FC0608160
:100630007181828193810C5F1F4FA5010E94A503E8
:10064000C82ECA183D2CE89437F867CF60817181B5
:1006500090E080E00E5F1F4FF0CF42FC02C0839419
:1006600078CF8394839475CF842D867809F471CFE5
:10067000F6CFB70180E290E00E9475038394821464
:10068000C0F3512C73CF522C5818821408F46ECF3B
:10069000F8CF842D867809F47BCF8BE241FE80E28F
:1006A00047FC8DE2B70190E071CFB70180E390E0A5
:1006B0000E9475039A946CCF8FEF9FEF99CFFC0146
:1006C0000590615070400110D8F7809590958E0F7D
:1006D0009F1F0895FC016150704001900110D8F7F0
:1006E000809590958E0F9F1F08950F931F93CF9322
:1006F000DF93182F092FEB018B8181FD09C01FEFBC
:100700000FEF812F902FDF91CF911F910F910895BF
:1007100082FF14C02E813F818C819D81281739076B
:100720003CF4E881F981CF01019699838883108395
:100730008E819F8101969F838E83E3CFE885F98523
:10074000812F0995892BA1F3DACFFA01AA27283046
:1007500051F1203181F1E8946F936E7F6E5F7F4F8E
:100760008F4F9F4FAF4FB1E03ED0B4E03CD0670F0A
:10077000781F891F9A1FA11D680F791F8A1F911D5D
:10078000A11D6A0F711D811D911DA11D20D009F4AD
:1007900068943F912AE0269F11243019305D3193EF
:1007A000DEF6CF010895462F4770405D4193B3E0D8
:1007B0000FD0C9F7F6CF462F4F70405D4A3318F07F
:1007C000495D31FD4052419302D0A9F7EACFB4E030
:1007D000A6959795879577956795BA95C9F70097E8
:1007E0006105710508959B01AC010A2E0694579589
:1007F000479537952795BA95C9F7620F731F841FE0
:10080000951FA01D08952F923F924F925F926F9275
:100810007F928F929F92AF92BF92CF92DF92EF9290
:10082000FF920F931F93CF93DF93CDB7DEB7CA1B11
:10083000DB0B0FB6F894DEBF0FBECDBF09942A883C
:10084000398848885F846E847D848C849B84AA84E4
:10085000B984C884DF80EE80FD800C811B81AA8171
:10086000B981CE0FD11D0FB6F894DEBF0FBECDBF3C
:08087000ED010895F894FFCF9B
:1008780054696D65200030002564003A004C6976A3
:0C0888006520796F757220626573740042
:00000001FF
